:020000040800F2
:10000000200400209D010008E10B0008DD0B000822
:10001000DF0B000801020008750C0008000000005A
:10002000000000000000000000000000050C0008B7
:100030000302000800000000030C0008070C000881
:10004000B7010008B7010008B7010008B7010008B0
:10005000B7010008B701000805020008B701000851
:10006000B7010008B7010008B7010008B701000890
:10007000B7010008B7010008B7010008B701000880
:10008000B7010008B7010008B7010008B701000870
:10009000B7010008B7010008B7010008B701000860
:1000A000B7010008B7010008B7010008B701000850
:1000B000B7010008B7010008B7010008B701000840
:1000C000B7010008B7010008B7010008B701000830
:1000D000B7010008B7010008B7010008B701000820
:1000E000B7010008B7010008B7010008B701000810
:1000F000B7010008B7010008B7010008B701000800
:10010000000000000000000000000000B70100082F
:10011000B7010008B7010008B7010008B7010008DF
:10012000B7010008B7010008B7010008B7010008CF
:10013000B7010008B701000800000000000000003F
:10014000B7010008B7010008B7010008000000006F
:10015000000000000000000000000000000000009F
:100160000000000000000000B7010008B70100080F
:10017000B7010008000000000000000000000000BF
:1001800000000000B7010008DFF80CD000F026F8EE
:100190000048004745190008200400200648804711
:1001A00006480047FEE7FEE7FEE7FEE7FEE7FEE75C
:1001B000FEE7FEE7FEE7FEE70D0C000889010008F8
:1001C00010B5002200E0521C835C8C5CA34201D17C
:1001D000002BF8D1D8B2E1B2401A10BD064C074D41
:1001E00006E0E06840F0010394E807009847103407
:1001F000AC42F6D3FFF7CCFF201A0008401A0008E3
:10020000FEE77047012000F00DB831B500F016F898
:10021000044600F013F80099001B8842F9D338BD5A
:1002200070470000044910B50A68024202D0086015
:10023000FFF7F6FF10BD00001404014001480068FC
:10024000704700000000002002480168491C01605E
:100250007047000000000020074810B5016841F019
:1002600010010160032000F03BF80F2000F006F8B9
:1002700000F015F8002010BD0020024010B5044623
:1002800000F084F94FF47A71B0FBF1F000F092FCC9
:1002900000222146501E00F003F8002010BD7047D8
:1002A000F0B40E4B1B680C46C3F30223C3F10705E1
:1002B000042D00D90425191D072901D2002300E0CF
:1002C000DB1E012606FA05F1491E214099409E4099
:1002D000761E16403143F0BC00F083BC0CED00E00C
:1002E000064900F0070208684FF6FF03184040EA8D
:1002F0000220034A10430860704700000CED00E044
:100300000000FA052DE9F047DFF8789205460E4621
:10031000D9F80000022300F007070120410442063B
:10032000994C41F28838B74271D2D9F800C02CF00C
:10033000070C4CEA060CC9F800C0D9F8007007F0A9
:100340000707B7426FD12E78B60705D56668AF6844
:1003500026F0F0063E4366602E78F60756D06E68AB
:10036000012E0BD0022E1ED093FAA3F1B1FA81F127
:1003700041F02001490924D0216823E091FAA1F23B
:10038000B2FA82F242F02002520901D0226800E063
:10039000626A91FAA1F1B1FA81F101F01F0188407E
:1003A000024240D017E092FAA2F1B1FA81F141F095
:1003B0002001490901D0216800E0616A92FAA2F2A5
:1003C00002E0616A93FAA3F2B2FA82F202F01F022B
:1003D0009040014227D0606820F003003043606005
:1003E000FFF72CFF06466868012809D00228474617
:1003F00013D01EE0FFF722FF801BB84201D992E024
:1004000047466068C0F381000128F3D1A1E015E000
:10041000FFF714FF801BB84273D86068C0F38100F7
:100420000228F5D195E092E0FFF708FF801BB84263
:1004300079D8606810F00C0FF6D18AE02F78BF07EA
:1004400007D56768D5F808C027F0F00747EA0C071A
:1004500067602F78FF076DD06F68012F0BD0022FD8
:100460001ED093FAA3F1B1FA81F141F020014909BC
:1004700024D0216823E091FAA1F2B2FA82F242F08C
:100480002002520901D0226800E0626A91FAA1F1CB
:10049000B1FA81F101F01F018840024257D017E004
:1004A00092FAA2F1B1FA81F141F02001490901D09B
:1004B000216800E0616A92FAA2F202E0616A93FAAE
:1004C000A3F2B2FA82F202F01F02904001423ED043
:1004D000606820F0030038436060FFF7AFFE074616
:1004E0006868012807D0022811D01FE0FFF7A6FE98
:1004F000C11B414517D86068C0F381000128F5D1C0
:1005000018E010E0FFF79AFEC11B41450BD8606868
:10051000C0F381000228F5D10CE000BFFFF78EFE8A
:10052000C11B414502D90320BDE8F087606810F087
:100530000C0FF3D1D9F8001021F007013143C9F8AD
:100540000010D9F8000000F00700B04201D00120EF
:10055000EAE72878400705D56068E96820F4E0609C
:10056000084360602878000706D56068296920F490
:10057000605040EAC10060600F20FFF77FFE00205E
:10058000D2E70000002002400010024000B500F059
:1005900017F808494968F02292FAA2F201F0F00136
:1005A000B2FA82F2D140044A515CC8400349086063
:1005B00000BD000000100240621900080800002081
:1005C000144B10B55A68144802F00C0104291DD0D0
:1005D00008291BD14FF4701494FAA4F402F470119A
:1005E000B4FA84F4E1400D4CDB6A615C0F2494FAA8
:1005F000A4F403F00F03B4FA84F4E340074C10347E
:10060000D203E35C03D5B0FBF3F0484310BD0448CC
:10061000484310BD0010024000127A007219000811
:1006200000093D002DE9F05F05460078FE4EC00749
:100630004FF000084FF0010425D070686704C0F344
:100640008100012807D07068C0F3810002281BD107
:100650007068C00318D597FAA7F0B0FA80F040F0A0
:100660002000400901D0306800E0706A97FAA7F1D5
:10067000B1FA81F101F01F0104FA01F1084270D0D2
:10068000686801287ED16CE086F80280FFF7D6FD0D
:10069000824641F2883905E0FFF7D0FDA0EB0A0160
:1006A000494570D897FAA7F0B0FA80F040F02000E2
:1006B000400901D0306800E0706A97FAA7F1B1FAFA
:1006C00081F101F01F0104FA01F10842E4D1287917
:1006D000B070F06AA96820F00F000843F062686803
:1006E000012803D0FFF7AAFD824625E0FFF7A6FD0B
:1006F000824605E0FFF7A2FDA0EB0A014945D0D8EC
:1007000097FAA7F0B0FA80F040F02000400901D03D
:10071000306800E0706A97FAA7F1B1FA81F101F050
:100720001F0104FA01F10842E4D01AE0FFF786FD48
:10073000A0EB0A014945B4D897FAA7F0B0FA80F0C7
:1007400040F02000400901D0306800E0706A97FA5C
:10075000A7F1B1FA81F101F01F0104FA01F1084299
:10076000E4D12878DFF8C49280074FF0020733D530
:1007700070684FF0F80B10F00C0F0AD07068C0F3DF
:10078000810001E097E037E1022826D17068C003BC
:1007900023D497FAA7F0B0FA80F040F02000400987
:1007A00001D0306800E0706A97FAA7F1B1FA81F1E0
:1007B00001F01F0104FA01F1084202D02869012862
:1007C00079D13068696920F0F8029BFAABF0B0FA91
:1007D00080F081400A43326051E0286968B3C9F86B
:1007E0000040FFF72BFD824606E000BFFFF726FD25
:1007F000A0EB0A0064289ED897FAA7F0B0FA80F020
:1008000040F02000400901D0306800E0706A97FA9B
:10081000A7F1B1FA81F101F01F0104FA01F10842D8
:10082000E4D030689BFAABF26969B2FA82F220F048
:10083000F80091400843306021E0C9F80080FFF7DC
:10084000FDFC824606E000BFFFF7F8FCA0EB0A00C3
:100850006428D0D897FAA7F0B0FA80F040F02000D2
:10086000400901D0306800E0706A97FAA7F1B1FA48
:1008700081F101F01F0104FA01F10842E4D1287866
:1008800000075ED56A48A96969B30460FFF7D6FC22
:10089000824605E0FFF7D2FCA0EB0A006428AAD844
:1008A00097FAA7F0B0FA80F040F06000B4EB501F68
:1008B00002D130680CE07AE197FAA7F0B0FA80F044
:1008C00040F06000B7EB501F01D1306A00E0706A61
:1008D00097FAA7F1B1FA81F101F01F0104FA01F2D0
:1008E0001042D7D02DE0C0F80080FFF7A7FC824669
:1008F00006E000BFFFF7A2FCA0EB0A0064287BD84B
:1009000097FAA7F0B0FA80F040F06000B4EB501F07
:1009100001D130680BE097FAA7F0B0FA80F040F010
:100920006000B7EB501F01D1306A00E0706A97FA9F
:10093000A7F1B1FA81F101F01F0104FA01F21042AE
:10094000D8D1287840076ED5F06940F08050F0612A
:10095000DFF8E0B0DBF8001041F48071CBF8001054
:10096000FFF76CFC824605E0FFF768FCA0EB0A008D
:10097000642841D8DBF80000C005F5D5306A20F0C6
:1009800005003062FFF75AFC834641F2883A05E0E1
:10099000FFF754FCA0EB0B0151452DD897FAA7F0B7
:1009A000B0FA80F040F04000B4EB501F01D1306845
:1009B0000BE097FAA7F0B0FA80F040F04000B7EBF8
:1009C000501F01D1306A00E0706A97FAA7F1B1FABE
:1009D00081F101F01F0104FA01F10842D8D1306A17
:1009E000E96820F0050008433062E868012804D077
:1009F000FFF724FC83463DE082E0FFF71FFC8346BF
:100A000006E000BFFFF71AFCA0EB0B01514577D8B9
:100A100097FAA7F0B0FA80F040F04000B4EB501F16
:100A20000AD1306814E046E0001002400000424263
:100A3000800442420070004097FAA7F0B0FA80F0BC
:100A400040F04000B7EB501F01D1306A00E0706AFF
:100A500097FAA7F1B1FA81F101F01F0204FA02F14D
:100A60000842CFD027E000BFFFF7E8FBA0EB0B0167
:100A7000514545D897FAA7F0B0FA80F040F0400011
:100A8000B4EB501F01D130680BE097FAA7F0B0FA31
:100A900080F040F04000B7EB501F01D1306A00E019
:100AA000706A97FAA7F1B1FA81F101F01F0204FA16
:100AB00002F10842D8D1E869E0B37168C1F381015D
:100AC000022975D04FF000770228C9F8608003D062
:100AD000FFF7B4FB054653E0FFF7B0FB804605E0A7
:100AE000FFF7ACFBA0EB0800642846D897FAA7F004
:100AF000B0FA80F040F02000400902D0306801E0F8
:100B00003BE0706A97FAA7F1B1FA81F101F01F0199
:100B100004FA01F10842E3D1D5E9081008437168ED
:100B200021F4741108437060C9F86040FFF786FB38
:100B3000054606E039E000BFFFF780FB401B642854
:100B40001BD897FAA7F0B0FA80F040F020004009D7
:100B500001D0306800E0706A97FAA7F1B1FA81F12C
:100B600001F01F0104FA01F10842E5D01DE000BFC9
:100B7000FFF764FB401B642802D90320BDE8F09F07
:100B800097FAA7F0B0FA80F040F02000400901D0B9
:100B9000306800E0706A97FAA7F1B1FA81F101F0CC
:100BA0001F0104FA01F10842E2D10020E6E7FFE765
:100BB0000120E3E710B5401EB0F1807F01D3012092
:100BC00010BD4FF0E02460610F21601700F009F8BC
:100BD0000020A06107202061002010BDFEE7FEE795
:100BE00070470907090E002806DA00F00F0000F12F
:100BF000E02080F8141D704700F1E02080F8001418
:100C0000704770477047FFF71FBB0000144801682A
:100C100041F4700101601348016841F00101016075
:100C20004168114A114041600168104A1140016059
:100C3000016821F480210160416821F4FE014160D6
:100C4000C16A21F00F01C162016B094A11400163C1
:100C5000002181600249C0038039086070470000AC
:100C600088ED00E0001002400CC07FF8FFFFF6FEA8
:100C7000CCFC00FFFEE7000010B500F0CFFB0149FF
:100C8000016010BDB819000810B5018082700446DB
:100C9000436000F070FC204610BD704710B504465C
:100CA00000F076FC411C05D0C1B2204600F09CFC4F
:100CB000012010BD002010BD01600249096841609B
:100CC000704700000400002010B50446806A00F060
:100CD00052FCC821A06800F099FBA06800F089FBD5
:100CE0000028FAD0A06ABDE8104000F04ABC10B558
:100CF0000446406A00F0C2FD4FF4FA71A06800F0AB
:100D000085FBA06800F075FB0028FAD0606ABDE89A
:100D1000104000F0B9BD70B504464069016809682B
:100D2000884701280BD1A069016809688847012814
:100D300005D16069016809688847012805D06069A4
:100D400001680968884710B10DE000257FE0A069BF
:100D5000016809688847012805D1E06901680968C8
:100D60008847012806D0606901680968884701281A
:100D700002D00CE001256AE0A06901680968884793
:100D800028B9E069016809688847012805D06069C9
:100D900001680968884710B10CE0022557E0A06996
:100DA00001680968884728B9E069016809688847C7
:100DB000012806D06069016809688847012802D0C7
:100DC0000CE0032543E0A069016809688847012811
:100DD00004D1E06901680968884728B16069016841
:100DE0000968884710B10CE0042530E0A06901686B
:100DF00009688847012804D1E069016809688847C3
:100E000030B16069016809688847012802D00BE0A9
:100E100005251CE0A06901680968884720B9E069D8
:100E200001680968884728B16069016809688847CE
:100E300010B10CE006250AE0A0690168096888473E
:100E400028B9E06901680968884700B9072529467B
:100E50006068FFF723FF002800D0012070BD00006C
:100E60004FEA0004FFF730FFE0680168096888472F
:100E700068B9206901680968884740B1206A01683B
:100E80000968884718B1206800F004FD28B120697E
:100E900001680968884750B10EE02046FFF73BFF24
:100EA00018B10121206800F0F5FA2046DAE7206841
:100EB00000F0F0FC0028F8D0E06801680968884775
:100EC00070B1206901680968884748B1206A0168E3
:100ED0000968884720B1206800F0DCFC012805D0B3
:100EE000E06801680968884718B111E001212068AD
:100EF00035E0206901680968884748B1206A0168BF
:100F00000968884720B1206800F0C4FC01280AD095
:100F1000E068016809688847B0B12069016809681C
:100F2000884738B110E02046FFF7CEFE206800F079
:100F300088FA99E7206A01680968884720B1206823
:100F400000F0A8FC012805D0E0680168096888471E
:100F500040B116E02046FFF7B7FE0221206800F0FE
:100F600099FA81E7206901680968884748B1206AD1
:100F700001680968884720B1206800F08BFC0228CE
:100F80006DD0E068016809688847012812D120699E
:100F900001680968884768B9206800F07BFC02286E
:100FA00018D0206800F076FC032813D0206800F0E9
:100FB00071FC78B1E068016809688847D0B12069A0
:100FC000016809688847A8B1206A016809688847EC
:100FD00058B10FE02046FFF777FE206800F037FA9F
:100FE0000021E06A00F08AFB3EE7206800F052FC36
:100FF00001282CD0E06801680968884770B1206931
:1010000001680968884748B1206A0168096888470B
:1010100020B1206800F03EFC032820D0E068016881
:1010200009688847002884D12069016809688847D1
:10103000002896D0206A016809688847002890D166
:101040002046FFF741FE2046FFF751FE0CE7204601
:10105000FFF73AFE0321206800F01CFAF3E7204670
:10106000FFF732FE42E79DE8F01F80E8FE1FFFF722
:10107000F7FE2DE9F0418AB000F092F80222034613
:10108000D7023946483000F0C9F90222A0F14803DE
:10109000140321460C3000F0C1F9A0F154034FF4C1
:1010A0008078022241460C3000F0B8F9A0F16003CC
:1010B000022211020C3000F0B1F90222A0F16C03FF
:1010C000550229460C3000F0A9F90222A0F178035C
:1010D000960231460C30FFF7CFFD84380123009093
:1010E000DA033946903000F09DF8A0F19003002219
:1010F00040210C3000F09CF901219C380094CDE98E
:1011000001102B4632464146A43000F036F810302C
:1011100000F081F9A0F1B40301229103001DFFF753
:10112000B3FD031FA0F12802A0F11401083000F064
:10113000E3F9014600F59A70FFF7BEFD05ADA0F595
:10114000A874A0F59E73A0F5AC72A0F5B87185E8FF
:101150001E0001AD2C3C4C3B3C3A303985E81E006A
:101160000C3902460091483378310830FFF77BFF95
:101170000AB0A0F5FE70BDE8F08170B50DF1100C5D
:1011800004469CE8610021806280A380E080257293
:1011900000212046E66000F0B1FA204670BD000054
:1011A00010B51D491C4A08310260C0E90121091D22
:1011B000C160091D0161091D416118498161C16159
:1011C000164908310162091D4162091D8162091D2C
:1011D000C162134901634163114908318163091DEB
:1011E000C163091D0164091D41644FF0553111604F
:1011F00083684FF0FF321A60C4684B002360C469F3
:101200002160046A2260426A1360436B00221A6004
:10121000C26B116010BD000000080048000C0048BF
:101220000010004810B504460298218062802371A6
:10123000A060204600F003FB204610BD4160002165
:1012400041707047C16070470161704781607047AD
:1012500010B504460078092825D2DFE800F00525FE
:101260003C5C707E8C9AA8000421A06800F046FACD
:10127000E06800F0EAFAE06800F0DBFA202120697B
:1012800000F0C4F8206900F0B4F80028FAD0E06853
:1012900000F0D5FA1121206900F0B8F8206900F0BB
:1012A000A8F80028FAD08FE00421A06800F026FA00
:1012B000E06800F0CAFAE06800F0BBFA3221206969
:1012C00000F0A4F8206900F094F80028FAD0E06853
:1012D00000F0B5FA78E00521A06800F00FFAE068A8
:1012E00000F0A1FAE06800F0A4FA2021206900F0E3
:1012F0008DF8206900F07DF80028FAD0E06800F051
:101300009EFA1121206900F081F8206900F071F83F
:101310000028FAD058E00521A06800F0EFF9E06855
:1013200000F081FAE06800F084FA3221206900F0D0
:101330006DF8206900F05DF80028FAD0C7E70121B8
:10134000A06800F0DBF93221206900F05FF8206925
:1013500000F04FF80028FAD036E00721A06800F02E
:10136000CDF93221206900F051F8206900F041F8F0
:101370000028FAD028E00221A06800F0BFF932214D
:10138000206900F043F8206900F033F80028FAD013
:101390001AE00321A06800F0B1F93221206900F0C1
:1013A00035F8206900F025F80028FAD00CE0082173
:1013B000A06800F0A3F93221206900F027F8206925
:1013C00000F017F80028FAD0606832386060002812
:1013D00003DC012060700020606010BD01700021FE
:1013E0004170704700218160C160016141704160BE
:1013F000704710B504460A20FEF707FF2068401E1C
:10140000206001D0002010BD012010BD0A22B1FBD8
:10141000F2F10160704700210160704710B5034C84
:10142000046081808271836010BD0000C4190008CF
:1014300010B5018082700446436000F025FA204612
:1014400010BD90F83011491C80F830117047002110
:101450000170417080F83011704770B504464FF448
:101460007A7002FB00F560780F2812D200EB800042
:1014700004EB8000001DFFF7B1FF6078294600EB08
:10148000800004EB8000001DFFF7D8FE6078401C50
:10149000607070BD10B50446017090F8300100EB2B
:1014A000800004EB8000001D00F0D5F9012804D174
:1014B00094F83001401C84F8300194F830016178D0
:1014C000884201D3042121702178052912D2DFE856
:1014D00001F0110311110C0000EB800004EB8000FF
:1014E000BDE81040001DFFF7B3BE2046BDE8104028
:1014F000FFF7ADBF10BD00002DE9F0471E46904636
:1015000089460F2314221149001D00F0C5F9041F5C
:101510005FF0000505EB850004EB8007381D4946A8
:10152000FFF794FE381D4146FFF78CFE381D31460B
:10153000FFF78AFE6D1C0F2DECDB0020607084F835
:10154000300120702046BDE8F0870000E513000858
:1015500010B5044682798188806800F047F940B16F
:10156000A279A188A06800F041F9012800D10020EB
:1015700010BD012010BD827801884068012300F071
:1015800042B9827801884068002300F03CB900002D
:101590002DE9F8434FF000055FEA010807462C46A5
:1015A00011D0A9467868015DC1B18DF80010661CA4
:1015B0000C49805D8DF801008DF802906846FEF7B9
:1015C000FFFD18B108E00020BDE8F8836D1CEDB206
:1015D000A84501D1A01DF7E7F4B2E3E74FF0FF30D3
:1015E000F2E70000AA190008F8B50C4605460027E6
:1015F00065E06868E119415C8DF800100119781CFC
:10160000085C8DF8010000208DF802003249684620
:10161000FEF7D6FD18B331496846FEF7D1FD00B399
:101620002F496846FEF7CCFDE8B12E496846FEF723
:10163000C7FDD0B12C496846FEF7C2FDB8B12B49B1
:101640006846FEF7BDFDA0B129496846FEF7B8FD22
:1016500088B128496846FEF7B3FD70B10EE0002658
:101660000CE001260AE0022608E0032606E0042634
:1016700004E0052602E0062600E00726FF1CBBB2B8
:101680006968E0180A19085C8DF80000591C3038A8
:10169000515C8DF801106A6800EB800017199A1CE4
:1016A000DB1CBA5C8DF802206FF02F0202EB4000C9
:1016B000084482B29FB231462868FFF7CEFE0E4939
:1016C0006846FEF77DFD002893D100220821286896
:1016D000FFF7C3FEF8BD0000921900089519000835
:1016E000981900089B1900089E190008A119000804
:1016F000A4190008A7190008AA19000810B5044683
:10170000092972D2DFE801F0050A21263136414667
:101710005700227A21880123E06803E0227A218899
:101720000023E06800F06FF8227A61880123E06806
:1017300000F069F8227AA1880123E06800F063F8DC
:10174000227AE1880123E0684BE0227A2188012394
:10175000E06803E0227A21880023E06800F053F873
:10176000227A61880023E068E2E7227A2188012357
:10177000E06803E0227A21880023E06800F043F863
:10178000227A61880123E0680EE0227A2188012311
:10179000E06803E0227A21880023E06800F033F853
:1017A000227A61880023E06800F02DF8227AA1886F
:1017B0000023E068C2E7227A21880123E06800F074
:1017C00022F8227A61880123E06800F01CF8227A6E
:1017D000A1880123E06800F016F8227AE188E06829
:1017E0000023BDE8104000F00EB810BD02EB42022D
:1017F00000EBC200006902880A40028001D000208C
:1018000070470120704702EB420200EBC20033B187
:10181000012B03D1406902888A43028070474069E6
:1018200002880A43F9E70279418880680123FFF7BB
:10183000EABF0279018880680023FFF7E4BF0279DC
:10184000018880680123FFF7DEBF02794188806844
:101850000023FFF7D8BF4078704710B5044682795F
:1018600081888068FFF7C2FF002806D0A279A1888E
:10187000A068BDE81040FFF7B9BF10BD82780188AD
:1018800040680023FFF7BFBF8278018840680123CA
:10189000FFF7B9BF007870472DE9F0411C461746A5
:1018A0000E00804607D0054602E02846B0473D447A
:1018B0002046641EF9D24046BDE8F08102E008C827
:1018C000121F08C1002AFAD170477047002001E0BA
:1018D00001C1121F002AFBD17047000030B58FB044
:1018E000FEF7BAFC012000240090CDE90104022596
:1018F0000004CDE907504FF4E01009906846FEF768
:1019000091FE00B1FEE70F20CDE90A054FF480609B
:10191000CDE90C4002210AA80E94FEF7F3FC00B1B9
:10192000FEE70748416941F400214161416941F402
:1019300080114161416941F4001141610FB030BD36
:101940000010024000B5ADF50B7DFFF7C7FF6846FC
:10195000FFF78FFB2EA8FFF7A0F90DF50B7D0020F8
:1019600000BD000000000102030401020304060799
:10197000080902030405060708090A0B0C0D0E0FDF
:1019800010100102030405060708090A0B0C0D0ECE
:101990000F10575300574800525300524800454D0E
:1019A00000445200464C00485400435000000000E0
:1019B00000000000000000005115000800000000B9
:1019C000000000005B18000857532C3035205748A2
:1019D0002C303720464C2C31322048542C303920C2
:1019E00044522C30342043502C30302052482C307C
:1019F000342057532C34342043502C30302052485C
:101A00002C30342057532C30332043502C3030208E
:101A100052482C30342043502C303020000000003D
:101A2000401A0008000000201C000000BC1800083C
:101A30005C1A00081C00002004040000CC180008F8
:101A400000000000C819000800127A000000000021
:0C1A500000000000010203040607080962
:040000050800018965
:00000001FF
